{
  "contractName": "BlockMedia",
  "abi": [
    {
      "inputs": [],
      "payable": false,
      "stateMutability": "nonpayable",
      "type": "constructor"
    },
    {
      "anonymous": false,
      "inputs": [
        {
          "indexed": false,
          "internalType": "uint256",
          "name": "id",
          "type": "uint256"
        },
        {
          "indexed": false,
          "internalType": "address payable",
          "name": "creator",
          "type": "address"
        },
        {
          "indexed": false,
          "internalType": "string",
          "name": "content",
          "type": "string"
        },
        {
          "indexed": false,
          "internalType": "uint256",
          "name": "num_comment",
          "type": "uint256"
        }
      ],
      "name": "PostCreated",
      "type": "event"
    },
    {
      "anonymous": false,
      "inputs": [
        {
          "indexed": false,
          "internalType": "uint256",
          "name": "id",
          "type": "uint256"
        },
        {
          "indexed": false,
          "internalType": "address payable",
          "name": "creator",
          "type": "address"
        },
        {
          "indexed": false,
          "internalType": "string",
          "name": "content",
          "type": "string"
        },
        {
          "indexed": false,
          "internalType": "uint256",
          "name": "tipAmount",
          "type": "uint256"
        }
      ],
      "name": "PostTipped",
      "type": "event"
    },
    {
      "constant": true,
      "inputs": [],
      "name": "postCount",
      "outputs": [
        {
          "internalType": "uint256",
          "name": "",
          "type": "uint256"
        }
      ],
      "payable": false,
      "stateMutability": "view",
      "type": "function"
    },
    {
      "constant": true,
      "inputs": [
        {
          "internalType": "uint256",
          "name": "",
          "type": "uint256"
        }
      ],
      "name": "posts",
      "outputs": [
        {
          "internalType": "uint256",
          "name": "id",
          "type": "uint256"
        },
        {
          "internalType": "address payable",
          "name": "creator",
          "type": "address"
        },
        {
          "internalType": "string",
          "name": "content",
          "type": "string"
        },
        {
          "internalType": "uint256",
          "name": "tipAmount",
          "type": "uint256"
        }
      ],
      "payable": false,
      "stateMutability": "view",
      "type": "function"
    },
    {
      "constant": false,
      "inputs": [
        {
          "internalType": "string",
          "name": "_content",
          "type": "string"
        }
      ],
      "name": "createPost",
      "outputs": [],
      "payable": false,
      "stateMutability": "nonpayable",
      "type": "function"
    },
    {
      "constant": false,
      "inputs": [
        {
          "internalType": "uint256",
          "name": "_id",
          "type": "uint256"
        }
      ],
      "name": "tipPost",
      "outputs": [],
      "payable": true,
      "stateMutability": "payable",
      "type": "function"
    }
  ],
  "bytecode": "0x60806040526000805534801561001457600080fd5b5060408051808201909152601981527f596f752063616e2063726561746520706f737473206865726500000000000000602082015261005b906001600160e01b0361006016565b61035a565b60008054600101905561007161028e565b60008054815260016020818152604092839020835160808101855281548152818401546001600160a01b0316818401526002808301805487516101009782161597909702600019011691909104601f81018590048502860185018752808652919592949286019390919083018282801561012c5780601f106101015761010080835404028352916020019161012c565b820191906000526020600020905b81548152906001019060200180831161010f57829003601f168201915b5050509183525050600391909101546020918201526040805160808101825260008054808352338386019081528385018981526060850184905291835260018087529490922083518155915193820180546001600160a01b0319166001600160a01b03909516949094179093559151805191955085945091926101b69260028501929101906102bf565b50606082015181600301559050507f285db98a4632176385795ddf0d2b67cef1a21f47eb2f5d06f786ab6b5147e2006000543384600060405180858152602001846001600160a01b03166001600160a01b0316815260200180602001838152602001828103825284818151815260200191508051906020019080838360005b8381101561024d578181015183820152602001610235565b50505050905090810190601f16801561027a5780820380516001836020036101000a031916815260200191505b509550505050505060405180910390a15050565b60405180608001604052806000815260200160006001600160a01b0316815260200160608152602001600081525090565b828054600181600116156101000203166002900490600052602060002090601f016020900481019282601f1061030057805160ff191683800117855561032d565b8280016001018555821561032d579182015b8281111561032d578251825591602001919060010190610312565b5061033992915061033d565b5090565b61035791905b808211156103395760008155600101610343565b90565b61083a806103696000396000f3fe60806040526004361061003f5760003560e01c80630b1e7f831461004457806317906c2e1461010d57806374d3c1f814610134578063c7303c6114610153575b600080fd5b34801561005057600080fd5b5061006e6004803603602081101561006757600080fd5b5035610206565b60405180858152602001846001600160a01b03166001600160a01b0316815260200180602001838152602001828103825284818151815260200191508051906020019080838360005b838110156100cf5781810151838201526020016100b7565b50505050905090810190601f1680156100fc5780820380516001836020036101000a031916815260200191505b509550505050505060405180910390f35b34801561011957600080fd5b506101226102bf565b60408051918252519081900360200190f35b6101516004803603602081101561014a57600080fd5b50356102c5565b005b34801561015f57600080fd5b506101516004803603602081101561017657600080fd5b81019060208101813564010000000081111561019157600080fd5b8201836020820111156101a357600080fd5b803590602001918460018302840111640100000000831117156101c557600080fd5b91908080601f01602080910402602001604051908101604052809392919081815260200183838082843760009201919091525092955061050b945050505050565b6001602081815260009283526040928390208054818401546002808401805488516101009882161598909802600019011691909104601f810186900486028701860190975286865291956001600160a01b039091169492938301828280156102af5780601f10610284576101008083540402835291602001916102af565b820191906000526020600020905b81548152906001019060200180831161029257829003601f168201915b5050505050908060030154905084565b60005481565b6102cd610739565b600082815260016020818152604092839020835160808101855281548152818401546001600160a01b0316818401526002808301805487516101009782161597909702600019011691909104601f8101859004850286018501875280865291959294928601939091908301828280156103875780601f1061035c57610100808354040283529160200191610387565b820191906000526020600020905b81548152906001019060200180831161036a57829003601f168201915b505050918352505060039190910154602091820152810151604051919250906001600160a01b038216903480156108fc02916000818181858888f193505050501580156103d8573d6000803e3d6000fd5b50600083815260016020818152604092839020855181558582015192810180546001600160a01b0319166001600160a01b0390941693909317909255918401518051859361042d92600285019291019061076a565b50606082015181600301559050507f0ea893dca2c603df1a06eeee20271ef166ecd0f59d578ffc1bac534b73f4ac4b83828460400151856060015160405180858152602001846001600160a01b03166001600160a01b0316815260200180602001838152602001828103825284818151815260200191508051906020019080838360005b838110156104c95781810151838201526020016104b1565b50505050905090810190601f1680156104f65780820380516001836020036101000a031916815260200191505b509550505050505060405180910390a1505050565b60008054600101905561051c610739565b60008054815260016020818152604092839020835160808101855281548152818401546001600160a01b0316818401526002808301805487516101009782161597909702600019011691909104601f8101859004850286018501875280865291959294928601939091908301828280156105d75780601f106105ac576101008083540402835291602001916105d7565b820191906000526020600020905b8154815290600101906020018083116105ba57829003601f168201915b5050509183525050600391909101546020918201526040805160808101825260008054808352338386019081528385018981526060850184905291835260018087529490922083518155915193820180546001600160a01b0319166001600160a01b039095169490941790935591518051919550859450919261066192600285019291019061076a565b50606082015181600301559050507f285db98a4632176385795ddf0d2b67cef1a21f47eb2f5d06f786ab6b5147e2006000543384600060405180858152602001846001600160a01b03166001600160a01b0316815260200180602001838152602001828103825284818151815260200191508051906020019080838360005b838110156106f85781810151838201526020016106e0565b50505050905090810190601f1680156107255780820380516001836020036101000a031916815260200191505b509550505050505060405180910390a15050565b60405180608001604052806000815260200160006001600160a01b0316815260200160608152602001600081525090565b828054600181600116156101000203166002900490600052602060002090601f016020900481019282601f106107ab57805160ff19168380011785556107d8565b828001600101855582156107d8579182015b828111156107d85782518255916020019190600101906107bd565b506107e49291506107e8565b5090565b61080291905b808211156107e457600081556001016107ee565b9056fea265627a7a723158201e522d9b2b41c52c9e1691abf5170714f0153f0e68017873eb8010cdfe06ddab64736f6c63430005100032",
  "source": "// SPDX-License-Identifier: MIT\npragma solidity >=0.4.22 <0.9.0;\n\ncontract BlockMedia {\n\n  struct Post{\n    uint id;\n    address payable creator;\n    string content;\n    uint tipAmount;\n  }\n\n\n  event PostCreated(\n    uint id,\n    address payable creator,\n    string content,\n    uint num_comment\n\n  );\n\n  event PostTipped(\n    uint id,\n    address payable creator,\n    string content,\n    uint tipAmount\n  );\n\n  uint public postCount = 0;\n\n  mapping (uint => Post) public posts;\n\n  function createPost(string memory _content) public\n  {\n    postCount++;\n    Post memory _post = posts[postCount];\n    _post = Post(postCount, msg.sender, _content, 0);\n    posts[postCount] = _post;\n    emit PostCreated(postCount, msg.sender, _content, 0);\n  }\n\n  function tipPost(uint _id) public payable\n  {\n    Post memory _post = posts[_id];\n    address payable _creator = _post.creator;\n    _creator.transfer(msg.value);\n    posts[_id] = _post;\n    emit PostTipped(_id, _creator, _post.content, _post.tipAmount);\n\n\n  }\n\n  constructor() public {\n    createPost(\"You can create posts here\");\n  }\n}\n",
  "sourcePath": "/home/alpha/Code/BlockChain/TodoList/contracts/BlockMedia.sol",
  "compiler": {
    "name": "solc",
    "version": "0.5.16+commit.9c3226ce.Emscripten.clang"
  },
  "schemaVersion": "3.4.3",
  "updatedAt": "2021-10-13T09:45:37.454Z",
  "networkType": "ethereum",
  "devdoc": {
    "methods": {}
  },
  "userdoc": {
    "methods": {}
  }
}