{
  "contractName": "BlockMedia",
  "abi": [
    {
      "inputs": [],
      "payable": false,
      "stateMutability": "nonpayable",
      "type": "constructor"
    },
    {
      "anonymous": false,
      "inputs": [
        {
          "indexed": false,
          "internalType": "uint256",
          "name": "id",
          "type": "uint256"
        },
        {
          "indexed": false,
          "internalType": "address",
          "name": "creator",
          "type": "address"
        },
        {
          "indexed": false,
          "internalType": "string",
          "name": "comment",
          "type": "string"
        }
      ],
      "name": "CommentPosted",
      "type": "event"
    },
    {
      "anonymous": false,
      "inputs": [
        {
          "indexed": false,
          "internalType": "uint256",
          "name": "id",
          "type": "uint256"
        },
        {
          "indexed": false,
          "internalType": "address",
          "name": "creator",
          "type": "address"
        },
        {
          "indexed": false,
          "internalType": "string",
          "name": "content",
          "type": "string"
        },
        {
          "indexed": false,
          "internalType": "uint256",
          "name": "num_comment",
          "type": "uint256"
        }
      ],
      "name": "PostCreated",
      "type": "event"
    },
    {
      "constant": true,
      "inputs": [
        {
          "internalType": "uint256",
          "name": "",
          "type": "uint256"
        },
        {
          "internalType": "uint256",
          "name": "",
          "type": "uint256"
        }
      ],
      "name": "comments",
      "outputs": [
        {
          "internalType": "uint256",
          "name": "id",
          "type": "uint256"
        },
        {
          "internalType": "address",
          "name": "creator",
          "type": "address"
        },
        {
          "internalType": "string",
          "name": "comment",
          "type": "string"
        }
      ],
      "payable": false,
      "stateMutability": "view",
      "type": "function"
    },
    {
      "constant": true,
      "inputs": [],
      "name": "postCount",
      "outputs": [
        {
          "internalType": "uint256",
          "name": "",
          "type": "uint256"
        }
      ],
      "payable": false,
      "stateMutability": "view",
      "type": "function"
    },
    {
      "constant": true,
      "inputs": [
        {
          "internalType": "uint256",
          "name": "",
          "type": "uint256"
        }
      ],
      "name": "posts",
      "outputs": [
        {
          "internalType": "uint256",
          "name": "id",
          "type": "uint256"
        },
        {
          "internalType": "address",
          "name": "creator",
          "type": "address"
        },
        {
          "internalType": "string",
          "name": "content",
          "type": "string"
        },
        {
          "internalType": "uint256",
          "name": "num_comment",
          "type": "uint256"
        }
      ],
      "payable": false,
      "stateMutability": "view",
      "type": "function"
    },
    {
      "constant": false,
      "inputs": [
        {
          "internalType": "string",
          "name": "_content",
          "type": "string"
        }
      ],
      "name": "createPost",
      "outputs": [],
      "payable": false,
      "stateMutability": "nonpayable",
      "type": "function"
    },
    {
      "constant": false,
      "inputs": [
        {
          "internalType": "uint256",
          "name": "_id",
          "type": "uint256"
        },
        {
          "internalType": "string",
          "name": "_comment",
          "type": "string"
        }
      ],
      "name": "postComment",
      "outputs": [],
      "payable": false,
      "stateMutability": "nonpayable",
      "type": "function"
    }
  ],
  "bytecode": "0x6080604052600080553480156200001557600080fd5b5060408051808201909152601981527f596f752063616e2063726561746520706f73747320686572650000000000000060208201526200005e906001600160e01b036200006416565b62000373565b600080546001019055620000776200029d565b60008054815260016020818152604092839020835160808101855281548152818401546001600160a01b0316818401526002808301805487516101009782161597909702600019011691909104601f810185900485028601850187528086529195929492860193909190830182828015620001365780601f106200010a5761010080835404028352916020019162000136565b820191906000526020600020905b8154815290600101906020018083116200011857829003601f168201915b5050509183525050600391909101546020918201526040805160808101825260008054808352338386019081528385018981526060850184905291835260018087529490922083518155915193820180546001600160a01b0319166001600160a01b0390951694909417909355915180519195508594509192620001c2926002850192910190620002ce565b50606082015181600301559050507f285db98a4632176385795ddf0d2b67cef1a21f47eb2f5d06f786ab6b5147e2006000543384600060405180858152602001846001600160a01b03166001600160a01b0316815260200180602001838152602001828103825284818151815260200191508051906020019080838360005b838110156200025b57818101518382015260200162000241565b50505050905090810190601f168015620002895780820380516001836020036101000a031916815260200191505b509550505050505060405180910390a15050565b60405180608001604052806000815260200160006001600160a01b0316815260200160608152602001600081525090565b828054600181600116156101000203166002900490600052602060002090601f016020900481019282601f106200031157805160ff191683800117855562000341565b8280016001018555821562000341579182015b828111156200034157825182559160200191906001019062000324565b506200034f92915062000353565b5090565b6200037091905b808211156200034f57600081556001016200035a565b90565b610a9980620003836000396000f3fe608060405234801561001057600080fd5b50600436106100575760003560e01c80630b1e7f831461005c57806317906c2e14610118578063c7303c6114610132578063ce010ffc146101da578063fc6c776f14610287575b600080fd5b6100796004803603602081101561007257600080fd5b5035610342565b60405180858152602001846001600160a01b03166001600160a01b0316815260200180602001838152602001828103825284818151815260200191508051906020019080838360005b838110156100da5781810151838201526020016100c2565b50505050905090810190601f1680156101075780820380516001836020036101000a031916815260200191505b509550505050505060405180910390f35b6101206103fb565b60408051918252519081900360200190f35b6101d86004803603602081101561014857600080fd5b81019060208101813564010000000081111561016357600080fd5b82018360208201111561017557600080fd5b8035906020019184600183028401116401000000008311171561019757600080fd5b91908080601f016020809104026020016040519081016040528093929190818152602001838380828437600092019190915250929550610401945050505050565b005b6101d8600480360360408110156101f057600080fd5b8135919081019060408101602082013564010000000081111561021257600080fd5b82018360208201111561022457600080fd5b8035906020019184600183028401116401000000008311171561024657600080fd5b91908080601f01602080910402602001604051908101604052809392919081815260200183838082843760009201919091525092955061062f945050505050565b6102aa6004803603604081101561029d57600080fd5b50803590602001356108c4565b60405180848152602001836001600160a01b03166001600160a01b0316815260200180602001828103825283818151815260200191508051906020019080838360005b838110156103055781810151838201526020016102ed565b50505050905090810190601f1680156103325780820380516001836020036101000a031916815260200191505b5094505050505060405180910390f35b6001602081815260009283526040928390208054818401546002808401805488516101009882161598909802600019011691909104601f810186900486028701860190975286865291956001600160a01b039091169492938301828280156103eb5780601f106103c0576101008083540402835291602001916103eb565b820191906000526020600020905b8154815290600101906020018083116103ce57829003601f168201915b5050505050908060030154905084565b60005481565b600080546001019055610412610998565b60008054815260016020818152604092839020835160808101855281548152818401546001600160a01b0316818401526002808301805487516101009782161597909702600019011691909104601f8101859004850286018501875280865291959294928601939091908301828280156104cd5780601f106104a2576101008083540402835291602001916104cd565b820191906000526020600020905b8154815290600101906020018083116104b057829003601f168201915b5050509183525050600391909101546020918201526040805160808101825260008054808352338386019081528385018981526060850184905291835260018087529490922083518155915193820180546001600160a01b0319166001600160a01b03909516949094179093559151805191955085945091926105579260028501929101906109c9565b50606082015181600301559050507f285db98a4632176385795ddf0d2b67cef1a21f47eb2f5d06f786ab6b5147e2006000543384600060405180858152602001846001600160a01b03166001600160a01b0316815260200180602001838152602001828103825284818151815260200191508051906020019080838360005b838110156105ee5781810151838201526020016105d6565b50505050905090810190601f16801561061b5780820380516001836020036101000a031916815260200191505b509550505050505060405180910390a15050565b610637610998565b600083815260016020818152604092839020835160808101855281548152818401546001600160a01b0316818401526002808301805487516101009782161597909702600019011691909104601f8101859004850286018501875280865291959294928601939091908301828280156106f15780601f106106c6576101008083540402835291602001916106f1565b820191906000526020600020905b8154815290600101906020018083116106d457829003601f168201915b50505091835250506003919091015460209182015260608083018051600101815260408051928301815281518352338385015282810187905260008881526002909452909220915182549394509092811061074857fe5b6000918252602091829020835160039290920201908155828201516001820180546001600160a01b0319166001600160a01b0390921691909117905560408301518051919261079f926002850192909101906109c9565b505050600083815260016020818152604092839020845181558482015192810180546001600160a01b0319166001600160a01b039094169390931790925591830151805184936107f69260028501929101906109c9565b50606082015181600301559050507f2a3becf3aaea83531f9c6fa03acdc91f40ea3468991ed4785afb4e5a1a63e0ac83338460405180848152602001836001600160a01b03166001600160a01b0316815260200180602001828103825283818151815260200191508051906020019080838360005b8381101561088357818101518382015260200161086b565b50505050905090810190601f1680156108b05780820380516001836020036101000a031916815260200191505b5094505050505060405180910390a1505050565b600260205281600052604060002081815481106108dd57fe5b600091825260209182902060039091020180546001808301546002808501805460408051601f600019978416156101000297909701909216939093049485018890048802810188019092528382529397506001600160a01b039091169550929383018282801561098e5780601f106109635761010080835404028352916020019161098e565b820191906000526020600020905b81548152906001019060200180831161097157829003601f168201915b5050505050905083565b60405180608001604052806000815260200160006001600160a01b0316815260200160608152602001600081525090565b828054600181600116156101000203166002900490600052602060002090601f016020900481019282601f10610a0a57805160ff1916838001178555610a37565b82800160010185558215610a37579182015b82811115610a37578251825591602001919060010190610a1c565b50610a43929150610a47565b5090565b610a6191905b80821115610a435760008155600101610a4d565b9056fea265627a7a72315820af5ebb5cc940fbabbccd7bea382d92cd7e103142ddf54c67b134b8c8c18a0d0764736f6c63430005100032",
  "source": "// SPDX-License-Identifier: MIT\npragma solidity >=0.4.22 <0.9.0;\n\ncontract BlockMedia {\n\n  struct Post{\n    uint id;\n    address creator;\n    string content;\n    uint num_comment;\n  }\n\n  struct Comment{\n    uint id;\n    address creator;\n    string comment;\n  }\n\n  event PostCreated(\n    uint id,\n    address creator,\n    string content,\n    uint num_comment\n\n  );\n\n  event CommentPosted(\n    uint id,\n    address creator,\n    string comment\n  );\n\n  uint public postCount = 0;\n\n  mapping (uint => Post) public posts;\n  mapping (uint => Comment[]) public comments;\n\n  function createPost(string memory _content) public\n  {\n    postCount++;\n    Post memory _post = posts[postCount];\n    _post = Post(postCount, msg.sender, _content, 0);\n    posts[postCount] = _post;\n    emit PostCreated(postCount, msg.sender, _content, 0);\n  }\n\n  function postComment(uint _id, string memory _comment) public\n  {\n    Post memory _post = posts[_id];\n    _post.num_comment = _post.num_comment + 1;\n    comments[_id][_post.num_comment] = Comment(_post.num_comment, msg.sender, _comment);\n    posts[_id] = _post;\n    emit CommentPosted(_id, msg.sender, _comment);\n\n  }\n\n  constructor() public {\n    createPost(\"You can create posts here\");\n  }\n}\n",
  "sourcePath": "/home/alpha/Code/BlockChain/TodoList/contracts/BlockMedia.sol",
  "compiler": {
    "name": "solc",
    "version": "0.5.16+commit.9c3226ce.Emscripten.clang"
  },
  "schemaVersion": "3.4.3",
  "updatedAt": "2021-10-13T07:48:36.199Z",
  "devdoc": {
    "methods": {}
  },
  "userdoc": {
    "methods": {}
  }
}