{
  "contractName": "BlockMedia",
  "abi": [
    {
      "inputs": [],
      "payable": false,
      "stateMutability": "nonpayable",
      "type": "constructor"
    },
    {
      "anonymous": false,
      "inputs": [
        {
          "indexed": false,
          "internalType": "uint256",
          "name": "id",
          "type": "uint256"
        },
        {
          "indexed": false,
          "internalType": "address",
          "name": "creator",
          "type": "address"
        },
        {
          "indexed": false,
          "internalType": "string",
          "name": "content",
          "type": "string"
        }
      ],
      "name": "PostCreated",
      "type": "event"
    },
    {
      "constant": true,
      "inputs": [],
      "name": "postCount",
      "outputs": [
        {
          "internalType": "uint256",
          "name": "",
          "type": "uint256"
        }
      ],
      "payable": false,
      "stateMutability": "view",
      "type": "function"
    },
    {
      "constant": true,
      "inputs": [
        {
          "internalType": "uint256",
          "name": "",
          "type": "uint256"
        }
      ],
      "name": "posts",
      "outputs": [
        {
          "internalType": "uint256",
          "name": "id",
          "type": "uint256"
        },
        {
          "internalType": "address",
          "name": "creator",
          "type": "address"
        },
        {
          "internalType": "string",
          "name": "content",
          "type": "string"
        }
      ],
      "payable": false,
      "stateMutability": "view",
      "type": "function"
    },
    {
      "constant": false,
      "inputs": [
        {
          "internalType": "string",
          "name": "_content",
          "type": "string"
        }
      ],
      "name": "createPost",
      "outputs": [],
      "payable": false,
      "stateMutability": "nonpayable",
      "type": "function"
    }
  ],
  "bytecode": "0x60806040526000805534801561001457600080fd5b5060408051808201909152601981527f596f752063616e2063726561746520706f737473206865726500000000000000602082015261005b906001600160e01b0361006016565b61032f565b60008054600101905561007161026a565b60008054815260016020818152604092839020835160608101855281548152818401546001600160a01b0316818401526002808301805487516101009782161597909702600019011691909104601f81018590048502860185018752808652919592949286019390919083018282801561012c5780601f106101015761010080835404028352916020019161012c565b820191906000526020600020905b81548152906001019060200180831161010f57829003601f168201915b50505091909252505060408051606081018252600080548083523360208085019182528486018a815292845260018082529590932084518155905194810180546001600160a01b0319166001600160a01b03909616959095179094555180519296508695509293506101a5926002850192910190610294565b509050507f8e40a51278abe2f4b410c0a96ff0bdd024b22666ca334062bf72afd596984bd6600054338460405180848152602001836001600160a01b03166001600160a01b0316815260200180602001828103825283818151815260200191508051906020019080838360005b8381101561022a578181015183820152602001610212565b50505050905090810190601f1680156102575780820380516001836020036101000a031916815260200191505b5094505050505060405180910390a15050565b60405180606001604052806000815260200160006001600160a01b03168152602001606081525090565b828054600181600116156101000203166002900490600052602060002090601f016020900481019282601f106102d557805160ff1916838001178555610302565b82800160010185558215610302579182015b828111156103025782518255916020019190600101906102e7565b5061030e929150610312565b5090565b61032c91905b8082111561030e5760008155600101610318565b90565b61057a8061033e6000396000f3fe608060405234801561001057600080fd5b50600436106100415760003560e01c80630b1e7f831461004657806317906c2e146100fb578063c7303c6114610115575b600080fd5b6100636004803603602081101561005c57600080fd5b50356101bd565b60405180848152602001836001600160a01b03166001600160a01b0316815260200180602001828103825283818151815260200191508051906020019080838360005b838110156100be5781810151838201526020016100a6565b50505050905090810190601f1680156100eb5780820380516001836020036101000a031916815260200191505b5094505050505060405180910390f35b610103610270565b60408051918252519081900360200190f35b6101bb6004803603602081101561012b57600080fd5b81019060208101813564010000000081111561014657600080fd5b82018360208201111561015857600080fd5b8035906020019184600183028401116401000000008311171561017a57600080fd5b91908080601f016020809104026020016040519081016040528093929190818152602001838380828437600092019190915250929550610276945050505050565b005b6001602081815260009283526040928390208054818401546002808401805488516101009882161598909802600019011691909104601f810186900486028701860190975286865291956001600160a01b039091169492938301828280156102665780601f1061023b57610100808354040283529160200191610266565b820191906000526020600020905b81548152906001019060200180831161024957829003601f168201915b5050505050905083565b60005481565b600080546001019055610287610480565b60008054815260016020818152604092839020835160608101855281548152818401546001600160a01b0316818401526002808301805487516101009782161597909702600019011691909104601f8101859004850286018501875280865291959294928601939091908301828280156103425780601f1061031757610100808354040283529160200191610342565b820191906000526020600020905b81548152906001019060200180831161032557829003601f168201915b50505091909252505060408051606081018252600080548083523360208085019182528486018a815292845260018082529590932084518155905194810180546001600160a01b0319166001600160a01b03909616959095179094555180519296508695509293506103bb9260028501929101906104aa565b509050507f8e40a51278abe2f4b410c0a96ff0bdd024b22666ca334062bf72afd596984bd6600054338460405180848152602001836001600160a01b03166001600160a01b0316815260200180602001828103825283818151815260200191508051906020019080838360005b83811015610440578181015183820152602001610428565b50505050905090810190601f16801561046d5780820380516001836020036101000a031916815260200191505b5094505050505060405180910390a15050565b60405180606001604052806000815260200160006001600160a01b03168152602001606081525090565b828054600181600116156101000203166002900490600052602060002090601f016020900481019282601f106104eb57805160ff1916838001178555610518565b82800160010185558215610518579182015b828111156105185782518255916020019190600101906104fd565b50610524929150610528565b5090565b61054291905b80821115610524576000815560010161052e565b9056fea265627a7a7231582028468beb51e713b99df32194e241b5e03d7f250174f322a194188ce2bc6a456564736f6c63430005100032",
  "source": "// SPDX-License-Identifier: MIT\npragma solidity >=0.4.22 <0.9.0;\n\ncontract BlockMedia {\n  struct Post{\n    uint id;\n    address creator;\n    string content;\n  }\n  event PostCreated(\n    uint id,\n    address creator,\n    string content\n\n  );\n\n  uint public postCount = 0;\n\n  mapping (uint => Post) public posts;\n\n  function createPost(string memory _content) public\n  {\n    postCount++;\n    Post memory _post = posts[postCount];\n    _post = Post(postCount, msg.sender, _content);\n    posts[postCount] = _post;\n    emit PostCreated(postCount, msg.sender, _content);\n  }\n\n  constructor() public {\n    createPost(\"You can create posts here\");\n  }\n}\n",
  "sourcePath": "/home/alpha/Code/BlockChain/TodoList/contracts/BlockMedia.sol",
  "compiler": {
    "name": "solc",
    "version": "0.5.16+commit.9c3226ce.Emscripten.clang"
  },
  "schemaVersion": "3.4.3",
  "updatedAt": "2021-10-13T04:14:21.527Z",
  "networkType": "ethereum",
  "devdoc": {
    "methods": {}
  },
  "userdoc": {
    "methods": {}
  }
}