{
  "contractName": "SocialMedia",
  "abi": [
    {
      "anonymous": false,
      "inputs": [
        {
          "indexed": false,
          "internalType": "uint256",
          "name": "id",
          "type": "uint256"
        },
        {
          "indexed": false,
          "internalType": "string",
          "name": "comment",
          "type": "string"
        }
      ],
      "name": "CommentPosted",
      "type": "event"
    },
    {
      "anonymous": false,
      "inputs": [
        {
          "indexed": false,
          "internalType": "uint256",
          "name": "id",
          "type": "uint256"
        },
        {
          "indexed": false,
          "internalType": "string",
          "name": "content",
          "type": "string"
        },
        {
          "indexed": false,
          "internalType": "uint256",
          "name": "commentNum",
          "type": "uint256"
        }
      ],
      "name": "PostCreated",
      "type": "event"
    },
    {
      "constant": true,
      "inputs": [
        {
          "internalType": "uint256",
          "name": "",
          "type": "uint256"
        },
        {
          "internalType": "uint256",
          "name": "",
          "type": "uint256"
        }
      ],
      "name": "comments",
      "outputs": [
        {
          "internalType": "uint256",
          "name": "id",
          "type": "uint256"
        },
        {
          "internalType": "string",
          "name": "comment",
          "type": "string"
        }
      ],
      "payable": false,
      "stateMutability": "view",
      "type": "function"
    },
    {
      "constant": true,
      "inputs": [],
      "name": "postCount",
      "outputs": [
        {
          "internalType": "uint256",
          "name": "",
          "type": "uint256"
        }
      ],
      "payable": false,
      "stateMutability": "view",
      "type": "function"
    },
    {
      "constant": true,
      "inputs": [
        {
          "internalType": "uint256",
          "name": "",
          "type": "uint256"
        }
      ],
      "name": "posts",
      "outputs": [
        {
          "internalType": "uint256",
          "name": "id",
          "type": "uint256"
        },
        {
          "internalType": "string",
          "name": "content",
          "type": "string"
        },
        {
          "internalType": "uint256",
          "name": "commentNum",
          "type": "uint256"
        }
      ],
      "payable": false,
      "stateMutability": "view",
      "type": "function"
    },
    {
      "constant": false,
      "inputs": [
        {
          "internalType": "string",
          "name": "_content",
          "type": "string"
        }
      ],
      "name": "createPost",
      "outputs": [],
      "payable": false,
      "stateMutability": "nonpayable",
      "type": "function"
    },
    {
      "constant": false,
      "inputs": [
        {
          "internalType": "uint256",
          "name": "_id",
          "type": "uint256"
        },
        {
          "internalType": "string",
          "name": "_comment",
          "type": "string"
        }
      ],
      "name": "createComment",
      "outputs": [],
      "payable": false,
      "stateMutability": "nonpayable",
      "type": "function"
    }
  ],
  "bytecode": "0x60806040526000805534801561001457600080fd5b5061097c806100246000396000f3fe608060405234801561001057600080fd5b50600436106100575760003560e01c80630b1e7f831461005c57806317906c2e146100ff57806340a1798514610119578063c7303c61146101c8578063fc6c776f1461026e575b600080fd5b6100796004803603602081101561007257600080fd5b5035610310565b6040518084815260200180602001838152602001828103825284818151815260200191508051906020019080838360005b838110156100c25781810151838201526020016100aa565b50505050905090810190601f1680156100ef5780820380516001836020036101000a031916815260200191505b5094505050505060405180910390f35b6101076103bc565b60408051918252519081900360200190f35b6101c66004803603604081101561012f57600080fd5b8135919081019060408101602082013564010000000081111561015157600080fd5b82018360208201111561016357600080fd5b8035906020019184600183028401116401000000008311171561018557600080fd5b91908080601f0160208091040260200160405190810160405280939291908181526020018383808284376000920191909152509295506103c2945050505050565b005b6101c6600480360360208110156101de57600080fd5b8101906020810181356401000000008111156101f957600080fd5b82018360208201111561020b57600080fd5b8035906020019184600183028401116401000000008311171561022d57600080fd5b91908080601f0160208091040260200160405190810160405280939291908181526020018383808284376000920191909152509295506106be945050505050565b6102916004803603604081101561028457600080fd5b50803590602001356107c8565b6040518083815260200180602001828103825283818151815260200191508051906020019080838360005b838110156102d45781810151838201526020016102bc565b50505050905090810190601f1680156103015780820380516001836020036101000a031916815260200191505b50935050505060405180910390f35b600160208181526000928352604092839020805481840180548651600296821615610100026000190190911695909504601f810185900485028601850190965285855290949193929091908301828280156103ac5780601f10610381576101008083540402835291602001916103ac565b820191906000526020600020905b81548152906001019060200180831161038f57829003601f168201915b5050505050908060020154905083565b60005481565b606060026000848152602001908152602001600020805480602002602001604051908101604052809291908181526020016000905b828210156104d5578382906000526020600020906002020160405180604001604052908160008201548152602001600182018054600181600116156101000203166002900480601f0160208091040260200160405190810160405280929190818152602001828054600181600116156101000203166002900480156104bd5780601f10610492576101008083540402835291602001916104bd565b820191906000526020600020905b8154815290600101906020018083116104a057829003601f168201915b505050505081525050815260200190600101906103f7565b5050505090506104e361088b565b60008481526001602081815260409283902083516060810185528154815281840180548651600296821615610100026000190190911695909504601f8101859004850286018501909652858552909491938584019390929083018282801561058c5780601f106105615761010080835404028352916020019161058c565b820191906000526020600020905b81548152906001019060200180831161056f57829003601f168201915b50505091835250506002919091015460209182015260408083018051600190810190915260008881528184529190912083518155838301518051949550859491936105dc938501929101906108ac565b50604091820151600290910155805180820182529082018051825260208201859052518351849190811061060c57fe5b60200260200101819052507f48f4f99a4273332a5d9b3f7cca4b043c99ae3f826b246c65802ed0d4fdc691cc84846040518083815260200180602001828103825283818151815260200191508051906020019080838360005b8381101561067d578181015183820152602001610665565b50505050905090810190601f1680156106aa5780820380516001836020036101000a031916815260200191505b50935050505060405180910390a150505050565b600080546001908101808355604080516060810182528281526020808201878152828401879052938652848152919094208451815591518051929361070b939085019291909101906108ac565b50604082015181600201559050507ff1feca0956b00ea58f186b162b552f007a3838885f13fbaae180e99e690bb7e66000548260006040518084815260200180602001838152602001828103825284818151815260200191508051906020019080838360005b83811015610789578181015183820152602001610771565b50505050905090810190601f1680156107b65780820380516001836020036101000a031916815260200191505b5094505050505060405180910390a150565b600260205281600052604060002081815481106107e157fe5b60009182526020918290206002918202018054600180830180546040805193821615610100026000190190911695909504601f810187900487028301870190955284825291965091945090929091908301828280156108815780601f1061085657610100808354040283529160200191610881565b820191906000526020600020905b81548152906001019060200180831161086457829003601f168201915b5050505050905082565b60405180606001604052806000815260200160608152602001600081525090565b828054600181600116156101000203166002900490600052602060002090601f016020900481019282601f106108ed57805160ff191683800117855561091a565b8280016001018555821561091a579182015b8281111561091a5782518255916020019190600101906108ff565b5061092692915061092a565b5090565b61094491905b808211156109265760008155600101610930565b9056fea265627a7a72315820456fbdeeeb783b61c1f145694d26761be8664fb4d1f8b23a15bbcda7464be28964736f6c63430005100032",
  "source": "pragma solidity >=0.4.22 <0.9.0;\n\ncontract SocialMedia{\n\n\tuint public postCount = 0;\n\n\tstruct Comment{\n\t\tuint id;\n\t\tstring comment;\n\t}\n\n\tstruct Post{\n\t\tuint id;\n\t\tstring content;\n\t\tuint commentNum;\n\t}\n\n\tevent PostCreated(\n\t\tuint id,\n\t\tstring content,\n\t\tuint commentNum\n\n\t);\n\n\tevent CommentPosted(\n\t\tuint id,\n\t\tstring comment\n\t);\n\n\tmapping (uint => Post) public posts;\n\tmapping (uint => Comment[]) public comments;\n\n\tfunction createPost(string memory _content) public\n\t{\n\t\tpostCount++;\n\t\tposts[postCount] = Post(postCount, _content, 0);\n\t\temit PostCreated(postCount, _content, 0);\n\t}\n\n\tfunction createComment(uint _id, string memory _comment) public\n\t{\n\t\tComment[] memory _com = comments[_id];\n\t\tPost memory _post = posts[_id];\n\t\t_post.commentNum++;\n\t\tposts[_id] = _post;\n\t\t_com[_post.commentNum] = Comment(_post.commentNum, _comment);\n\t\temit CommentPosted(_id, _comment);\n\t}\n\n}",
  "sourcePath": "/home/alpha/Code/BlockChain/TodoList/contracts/SocialMedia.sol",
  "compiler": {
    "name": "solc",
    "version": "0.5.16+commit.9c3226ce.Emscripten.clang"
  },
  "schemaVersion": "3.4.3",
  "updatedAt": "2021-10-12T11:33:24.366Z",
  "networkType": "ethereum",
  "devdoc": {
    "methods": {}
  },
  "userdoc": {
    "methods": {}
  }
}